:020000021000EC
:10E000000C9446F00C9465F00C9465F00C9465F05B
:10E010000C9465F00C9465F00C9465F00C9465F02C
:10E020000C9465F00C9465F00C9465F00C9465F01C
:10E030000C9465F00C9465F00C9465F00C9465F00C
:10E040000C9465F00C9465F00C9465F00C9465F0FC
:10E050000C9465F00C9465F00C9465F00C9465F0EC
:10E060000C9465F00C9465F00C9465F00C9465F0DC
:10E070000C9465F00C9465F00C9465F00C9465F0CC
:10E080000C9465F00C9465F00C9465F011241FBE9F
:10E09000C0E0D0E1DEBFCDBF11E0A0E0B1E0E6E33B
:10E0A000FDEE01E00BBF02C007900D92A231B10757
:10E0B000D9F723E0A2E1B1E001C01D92A83AB2076E
:10E0C000E1F70E9429F60C9499F60C9400F0109256
:10E0D000850110928601109287011092880110929A
:10E0E0006601109267011092680110926901109206
:10E0F0001A0110921B0110921C0110921D01109226
:10E100001601109217011092180110921901109225
:10E11000120110921301109214011092150108952A
:10E12000CF92DF92EF92FF920F931F93CF93DF93E3
:10E13000611520EE720721E08207910508F044C0C6
:10E14000E199FECF23E0FB0180935B002093680000
:10E15000E8952091680020FDFCCF00E010E09801D8
:10E16000C1E0FA01E00FF11FD08168017901C60E0C
:10E17000D71EE81EF91EE181F0E0BE2FAA27AD0FE1
:10E18000B11D0D01F601E0925B00C0936800E895B7
:10E1900011240E5F1F4F2F4F3F4F0115E1E01E0767
:10E1A00021053105F1F625E0FB0180935B0020930A
:10E1B0006800E8958091680080FDFCCF81E1809344
:10E1C0006800E89580E001C081E8DF91CF911F9160
:10E1D0000F91FF90EF90DF90CF9008958F929F92D4
:10E1E000AF92BF92EF92FF920F931F93CF93DF9363
:10E1F000C0919002D091910222978091120190914A
:10E200001301A0911401B091150140919302892B43
:10E210008A2B8B2B11F4442389F050E060E070E0EE
:10E220008091160190911701A0911801B0911901E8
:10E23000481759076A077B0709F48FC080911A01B4
:10E2400090911B01A0911C01B0911D018C0F9D1F8D
:10E25000A11DB11D80931A0190931B01A0931C0175
:10E26000B0931D01B4E9EB2EB2E0FB2E80E090E00C
:10E2700000E010E00C171D070CF05AC080906601FA
:10E2800090906701A0906801B0906901B501A40168
:10E290004F5F5F4F6F4F7F4F409366015093670111
:10E2A0006093680170936901F70121917F01F40186
:10E2B000E457FE4F20834F3F51056105710541F141
:10E2C00038F160918501709186018091870190916C
:10E2D00088014CE851E00E9490F0409185015091F6
:10E2E000860160918701709188015F5F6F4F7F4F5A
:10E2F0004093850150938601609387017093880154
:10E3000010926601109267011092680110926901E3
:10E310004091930250E060E070E04093160150930A
:10E32000170160931801709319010F5F1F4FA2CF5F
:10E3300040911201509113016091140170911501E7
:10E340004F5F5F4F6F4F7F4F409312015093130108
:10E35000609314017093150102C082E890E0DF9190
:10E36000CF911F910F91FF90EF90BF90AF909F9032
:10E370008F900895CF92DF92EF92FF928091930257
:10E3800081114CC080919702C0909602D12CE12C53
:10E39000F12C7601DD24CC24F82A80919402C82A3D
:10E3A00080919502D82A8091660190916701A09191
:10E3B0006801B09169010097A105B105D9F02FEF6F
:10E3C0008F3F9105A105B10509F040F4FC01E45728
:10E3D000FE4F20830196A11DB11DF2CF60918501F2
:10E3E0007091860180918701909188014CE851E0FD
:10E3F0000E9490F080911A0190911B01A0911C0144
:10E40000B0911D01C816D906EA06FB0611F081E895
:10E4100001C080E091E090931E0101C08CECFF9060
:10E42000EF90DF90CF9008950F931F93CF93DF93DA
:10E43000CDB7DEB728970FB6F894DEBF0FBECDBFBD
:10E4400088E0E0E0F1E0DE01119601900D928A95FE
:10E45000E1F700E010E048E050E0B801CE0101969D
:10E460000E9482F6085F1F4F011582E0180799F796
:10E4700028960FB6F894DEBF0FBECDBFDF91CF91C7
:10E480001F910F91089580918D028C3209F089C0FF
:10E4900080918F02813309F469C028F48E32C9F06B
:10E4A0008F3259F179C0833309F471C008F46CC01C
:10E4B000843309F071C08091E10280936A018091F8
:10E4C000C50280936B018091C60280936C0183E04A
:10E4D00048C010926A0188E280936B0186E08093C5
:10E4E0006C0110926D0110926E018CE080936F01AF
:10E4F00081E08093700187E034C0809193028111A4
:10E500004EC0809194028230F1F0A0F48823B1F0E3
:10E51000813009F046C081E080936A0110926B015E
:10E5200010926C0110926D0110926E0110926F01A9
:10E5300086E017C08530A8F583E8089584E28093CB
:10E540006A0181E00EC0A8E0B1E0EAE6F1E080E017
:10E55000883050F49C9190838F5F119631968C3067
:10E56000B9F780938B0123C01082F6CF809193027C
:10E57000811119C08091C5028038B9F08091940250
:10E5800081508230A0F00DC00E94EEF002C00E94C7
:10E59000BAF110928B01089510928B0102C082E8AB
:10E5A00008958CEC089581E8089580E8089580E04E
:10E5B0000895BC01809171008E7F809371008091DD
:10E5C00071008D7F8093710080E991E00E946EF66A
:10E5D000862F603138F07727CB01409797FD019661
:10E5E00095958795809370000895909A919A1092CE
:10E5F000200110921F0184E190E00E94D9F2E4E72B
:10E60000F0E08081846080831092430180818E7F5E
:10E61000808380818F7B808308958E7F91E061115C
:10E6200001C090E0982B9093720008959093200180
:10E6300080931F010895E4E7F0E080818F70806A85
:10E6400080830895909143019111FCCF92E09093C3
:10E6500043018E7F80934201FA0185EE92E0DC0156
:10E660002A2F281B261718F421912D93F9CF1092E9
:10E67000E3026093E2020C941BF38091740087FF25
:10E68000FCCF80917100887F8093E4028831F1F0A3
:10E6900058F48830C1F08031B1F08111EECF809113
:10E6A00074008F70806D34C0883281F018F480322D
:10E6B00069F0E3CF803351F08833F9F6809174002C
:10E6C0008F70806825C0809142010EC0E091E30206
:10E6D0008091E202E81788F481E08E0F8093E302D4
:10E6E000F0E0EB51FD4F80818093730080917400C6
:10E6F0008F70806880937400C0CF809174008F7099
:10E70000806D809374001092430180E090E0089542
:10E7100080937400109243018FEF90E0089584E895
:10E720008093740084E48093740021E080917400ED
:10E7300087FFFCCF80917100887F8093E402883747
:10E74000E9F088F48036D1F048F4811137C0809127
:10E7500074008F70806D80937400E8CF883671F0FC
:10E76000803761F02BC0883819F118F4803869F0CF
:10E7700025C0803951F08839D9F020C0209321017B
:10E7800090917300909322010EC0E091210191E0DD
:10E790009E0F9093210130917300F0E0EE5DFE4FEB
:10E7A0003083903228F4909174009F70906C04C074
:10E7B000909174009F70906890937400803A09F073
:10E7C000B5CF809174008F70806C80937400E0915D
:10E7D0001F01F0912001309729F062E271E08091F1
:10E7E000210109951092430180E00895909105035D
:10E7F00098609093050390FD12C0FB0125E431E081
:10E80000D9019A2F921B981718F491919D93F9CFE3
:10E8100080936501809105038160809305030895CD
:10E8200010926A0180E880936B0181E080936C0113
:10E8300010926D0181E580936E0189E280936F01F2
:10E8400080E680937001109271011092720185E34D
:10E850008093730182E1809374018BE0089520E03E
:10E86000615030F0FC01E60FF11D3081230FF8CF2D
:10E87000822F81950895FF920F931F93CF93DF937B
:10E88000CDB7DEB7A1970FB6F894DEBF0FBECDBFF0
:10E89000F82E00918301098310918D02212F30E021
:10E8A0002F5F3F4F220F331F220F331F90918E0295
:10E8B0009370922B9A8362E0CE0101960E942FF40E
:10E8C0008B8380918C028C839091AB02990F990F6E
:10E8D0009D8380918F028E83FF821C3219F41886EB
:10E8E00018E001C017E0F11019C090918B01992335
:10E8F000A9F02AE631E0F901512F521B452F4E0FA6
:10E900008E2F821B891748F48191A1E0B0E0AC0FF3
:10E91000BD1FA40FB11D8C93F1CF190F612FCE0134
:10E9200001960E942FF4E1E0F0E0EC0FFD1FE10FF3
:10E93000F11D8083AE014E5F5F4F612F802F0E94DB
:10E9400022F3809105038E7F80930503A1960FB675
:10E95000F894DEBF0FBECDBFDF91CF911F910F9115
:10E96000FF90089510928B0140914401842F90E014
:10E9700020918D02FC01E95FFC4F208330918F02D2
:10E98000FC01E95AFC4F308381E0840F8F3418F486
:10E990008093440102C010924401263029F02C32A9
:10E9A00059F40E9443F209C0313031F40E9410F44E
:10E9B00080938B0180E001C081EC0C943BF4EF92DA
:10E9C000FF920F931F93CF93DF93E0900503E0FE38
:10E9D00070C0C091470162E085E491E00E942FF48D
:10E9E000C81367C0F09065010F2D10E0E801219772
:10E9F0006FEF6F0D85E491E00E942FF4FE01EB5B59
:10EA0000FE4F9081981355C08091450180938C02F0
:10EA1000809146018695869580938D02909148015C
:10EA20009093830120914901322F3695369530938A
:10EA3000AB02237020938E0220914A0120938F0213
:10EA400080FF10C08091A703981333C080914B01C1
:10EA500081112FC08E2D8B7F8E7F809305031092A6
:10EA6000890127C087E08F15C0F407501109109362
:10EA700091020093900226E0EAEFE20F822F90E0ED
:10EA80008C179D0774F4F0E0E357FD4FDC01AB5B9E
:10EA9000BE4F8C9185832F5FEFCF10929102109221
:10EAA0009002DF91CF911F910F91FF90EF900C9406
:10EAB000B2F4DF91CF911F910F91FF90EF900895E5
:10EAC000039666E170E00E946EF68CE0869F9001EE
:10EAD000879F300D112480E090E08217930719F092
:10EAE00000000196FACF08951F93CF93DF93BB9850
:10EAF000BA98B998B89AC09880B5846080BD88B338
:10EB000088BB84E690E00E9460F516B313FB1127E2
:10EB100010F9D6B3D2FBDD27D0F9C6B3C695C170C4
:10EB2000C09A84E690E00E9460F586B383FB882754
:10EB300080F9181302C0212F01C022E086B382FBA6
:10EB4000882780F9D81302C09D2F01C092E086B3B8
:10EB500086958170C81302C08C2F01C082E02130DD
:10EB600039F1223079F0992319F0923029F035C02B
:10EB7000823099F582E736C0882339F1823069F511
:10EB800086E730C0913071F0923031F08823F9F08F
:10EB9000823019F58AE726C08823D9F08130E9F45C
:10EBA0008EE720C08230B9F08130B9F482E81AC013
:10EBB000913039F0923089F4823089F0813069F4F3
:10EBC00010C0823051F488E80DC084E70BC088E79C
:10EBD00009C08CE707C080E805C080E003C084E876
:10EBE00001C086E890B59B7F90BD811101C080E790
:10EBF000DF91CF911F9108950E94F5F20E9474F564
:10EC0000809306036FEF0E940DF380E28093A703C9
:10EC100081E0809384011092890186EF93EF0C9438
:10EC200016F3E199FECF1EBA1FBA8FEF8DBBE29AA1
:10EC3000E19A0895E199FECF1EBA1FBA1DBAE29A71
:10EC4000E19A0895E199FECF1EBA1FBAE09A8DB3FA
:10EC50000895F89410921E010E9422F68F3F71F4DD
:10EC60000E941AF62FE088E190E00FB6F894A8957C
:10EC700081BD0FBE21BDE0E0F0E0099588E10FB64F
:10EC8000F89481BD11BC0FBE0E9414F281E3809301
:10EC9000E10281E08093E00282E08093C70280E895
:10ECA0008093C5020E94FCF50E9467F01092C50295
:10ECB0000E948FF30E94DFF40E943DF380911E01B9
:10ECC0008823B1F30E9411F62EE088E190E00FB6A0
:10ECD000F894A89581BD0FBE21BDFFCFAA1BBB1B19
:10ECE00051E107C0AA1FBB1FA617B70710F0A61B4C
:10ECF000B70B881F991F5A95A9F780959095BC016D
:10ED0000CD010895DC01CB0103C02D910E948DF649
:10ED100041505040D0F70895262FE199FECF9FBB78
:10ED20008EBB2DBB0FB6F894E29AE19A0FBE019606
:06ED30000895F894FFCFE6
:10ED3600FFFFFFFFFFFFFFFF4345524E204D4D43B0
:02ED46000000CB
:040000031000E00009
:00000001FF
