:100000000C948F000C94AE000C94AE000C94D902AA
:100010000C94AE000C94AE000C94AE000C94AE00A8
:100020000C94AE000C94AE000C94AE000C94AE0098
:100030000C94AE000C94AE000C94AE000C94CE1E4A
:100040000C94AE000C94AE000C94AE000C94AE0078
:100050000C94AE000C94AE000C94AE000C94AE0068
:100060000C94AE000C94AE000C94AE000C94AE0058
:100070000C94AE000C94AE000C94AE000C94AE0048
:100080000C94AE000C946F070C94AE00C90D450E95
:10009000450E450ED60DEA0DF40DFD0D0A0E450E6A
:1000A000180E1F0E130E250E450E450E450E500E52
:1000B000450E450E450E450E450E450E450E300EBD
:1000C000370E450E450E450ECE0D450E450E450E1E
:1000D000450E450E450E450E450E450E450E450E88
:1000E000450E450E3E0ED410DF10EA10F51000113B
:1000F0000B1118112F113B11471153115F116B1187
:1001000079119811A311AE11B911C411CF11DC11DD
:10011000F311FF110B12171223122F123D1211248B
:100120001FBEC0E0D0E1DEBFCDBF11E0A0E0B1E076
:10013000ECE9F1E400E00BBF02C007900D92A83A91
:10014000B107D9F727E0A8EAB1E001C01D92A238B3
:10015000B207E1F70E9497140C94CC200C94000095
:10016000E199FECF21E0280F2EBB01969FBB6DBB0E
:10017000E29AE19A0895E199FECF21E0280F2EBB83
:1001800001969FBBE09A8DB30895E199FECF1EBA08
:100190001FBA8FEF8DBBE29AE19A0895E199FECFE5
:1001A0001EBA1FBA1DBAE29AE19A089581E08093BF
:1001B0006C0210926D0210926E0280936F02E091B9
:1001C0007402F091750281818F5F80937002E091DB
:1001D0007602F09177029181980F909371021092BC
:1001E000720268E08CE692E00E94221F8093730204
:1001F0000895CF93DF9388E390E00E94A51F90932A
:1002000075028093740280E090E0E0917402F091B6
:1002100075028833910529F0E80FF91F10820196C5
:10022000F4CF81E08083E0917402F091750287E061
:100230008183E0917402F091750289E182831382D7
:100240001482158284EC868383E4878385E4808727
:1002500082E581878EE482878CEC8387A6E7B1E014
:100260008CE090E02D91E0917402F0917502E80F1E
:10027000F91F2083019688319105A1F7E09174025E
:10028000F091750289EC808FA3E8B1E089E190E0FC
:100290002D91E0917402F0917502E80FF91F20830F
:1002A000019682329105A1F7E0917402F0917502F6
:1002B00088EC82A3ADE8B1E083E290E02D91E0917B
:1002C0007402F0917502E80FF91F208301968B32BA
:1002D0009105A1F7E0917402F091750287EC83A774
:1002E000A6E9B1E08CE290E02D91E0917402F091EA
:1002F0007502E80FF91F2083019683339105A1F75A
:10030000C0917402D091750281EC8BAB68E3CE0191
:100310000E94221F8FABDF91CF910895CF93DF937F
:1003200080E390E00E94A51F90937702809376026D
:1003300080E090E0E0917602F091770280339105C1
:1003400029F0E80FF91F10820196F4CF81E0808335
:10035000E0917602F091770286E08183E091760267
:10036000F091770289E1828384EC838383E4848340
:1003700085E4858382E586838EE487838CEC8087A1
:10038000A6E7B1E089E090E02D91E0917602F0914E
:100390007702E80FF91F2083019685319105A1F7B7
:1003A000E0917602F091770285EC858BA7E8B1E0C9
:1003B00086E190E02D91E0917602F0917702E80FCE
:1003C000F91F208301968B319105A1F7E091760208
:1003D000F091770282EC838F86E7848F81E3858FAB
:1003E00085EC868FA7E8B1E08FE190E02D91E09158
:1003F0007602F0917702E80FF91F2083019684328C
:100400009105A1F7E0917602F091770280EC84A348
:1004100087EC85A3A6E9B1E086E290E02D91E0911A
:100420007602F0917702E80FF91F208301968D3252
:100430009105A1F7C0917602D091770281EC8DA74A
:1004400060E3CE010E94221F8FA7DF91CF91089514
:100450000F931F93CF93DF9380EC8093780282E811
:100460008093790286E080937A020BE712E0F8012C
:100470001082CCE7D2E018828AE580937D0281E386
:1004800080937E0210927F0286E180938002109218
:1004900081028CE38093820266E08DE792E00E9405
:1004A000221FF801808365E088E792E00E94221F06
:1004B0008883DF91CF911F910F91089580917402ED
:1004C000909175020E943D20809176029091770272
:1004D0000C943D20EF92FF920F931F93CF93DF93E5
:1004E0000E94F9000E948E010E9428020E94D600FC
:1004F000FFB6F8940CE612E0C0E0D0E0F80161919C
:100500008F01CE010E94B0002196C830D105B1F70D
:10051000C0E0D0E01C2F185FE0917402F0917502EA
:10052000218188E0289F90011124C217D3074CF441
:10053000EC0FFD1F6081812F90E00E94B00021969A
:10054000E9CFC0E0D0E0EC2EE10EE0917602F09130
:100550007702218188E0289F90011124C217D307D8
:100560004CF4EC0FFD1F60818E2D90E00E94B000D6
:100570002196E9CF08E712E0C0E0D0E08C2F8E0D85
:1005800020917A0230E02C5F3F4F2C173D0744F05A
:10059000F80161918F0190E00E94B0002196EECFAA
:1005A000FFBEDF91CF911F910F91FF90EF900C94C0
:1005B0005E021F920F920FB60F9211240BB60F928C
:1005C0002F933F934F935F936F937F938F939F935B
:1005D000AF93BF93EF93FF931092A90180E00E9425
:1005E0003D1EFF91EF91BF91AF919F918F917F91B0
:1005F0006F915F914F913F912F910F900BBE0F9094
:100600000FBE0F901F901895CF93DF931F92CDB719
:10061000DEB7898321E0AE014F5F5F4F60E080E08D
:100620000E94F80E8093A8010F90DF91CF9108955A
:1006300080B382FB882780F9089580916A008061E9
:1006400080936A0080916A008F7D80936A0089B7E9
:10065000846089BF60E080E00E942D1E0E94180324
:10066000811105C061E00E942D1E80E005C062E09E
:1006700080E00E942D1E81E00C940403CF938091B2
:10068000A9018F5F8093A9018730D0F10E941803E0
:10069000C82F80E00E94461E811104C08091A801ED
:1006A000882361F180910601C81731F180E0C11102
:1006B00011C00E94351E682F6D7F80E00E942D1EA4
:1006C00080E00E94351E682F616080E00E942D1E30
:1006D00080E010C00E94351E682F6E7F80E00E946F
:1006E0002D1E80E00E94351E682F626080E00E940F
:1006F0002D1E81E00E940403C09306011092A80100
:10070000CF9108950C94C50080918502882329F02B
:10071000109285020E94CE00FFCF0895CF93DF9301
:10072000EB01FA01D901813309F450C028F48E326B
:10073000A9F08F3201F161C0833309F460C080F108
:10074000843309F05AC080918602808380918302AD
:10075000818380918402828383E027C0108288E2B3
:10076000818388E18283138214828CE0858381E017
:10077000868387E01AC0898181113DC08A818230D9
:10078000B1F060F4882371F08130B9F58083118273
:10079000128213821482158286E007C0853068F5C4
:1007A00083E832C084E2808381E08C932CC0CEE960
:1007B000D1E080E0883018F49881908301C01082E5
:1007C0008F5F219631968C30A9F7EFCF99819111E7
:1007D00016C0909183029038A1F09A81913099F0DF
:1007E000923059F491E09093850290E890938302BF
:1007F0008093860206C082E807C08CEC05C081E8C1
:1008000003C080E801C080E0DF91CF910895D098C7
:10081000D298D39AD49AD59AB89ABB98BA98B998DC
:10082000BD9ABE9ABF9AA29AA39AA498A598A69A8E
:10083000A79A8A9812981398E1E6F0E080818E7F5B
:100840008083E4E6F0E08081816080838081826043
:1008500080838081846080838081877F8083089506
:1008600081E08093AB010895AF9AAE9A80E00E9438
:10087000351E682F677E80E00E942D1E80E008955F
:10088000AF98AE9880E00E94351E682F606180E0CE
:100890000E942D1E80E008950E94120C9091AA01E2
:1008A000882399F1911113C080E00E943D0583389F
:1008B00070F080E00E94351E682F6B7F80E00E9400
:1008C0002D1E81E08093AA010E9434040BC0809108
:1008D000AA01813039F480E00E943D05813410F492
:1008E0001092AA018091AB011092AB01882371F1A3
:1008F0000E94400480E00E94351E682F646080E002
:100900000E942D1E82E00C94040391110EC080E021
:100910000E943D05833848F00E941803811105C0EC
:1009200081E08093AA010C9434048091AA01813063
:1009300069F480E00E943D05803420F41092AA0101
:100940000C9440040E9418038130C1F30895823052
:1009500059F4AF98AE98A89584EF91E00E94931E49
:10096000AF9AAE9A80E008958FEF089584E00895DD
:100970000F931F93CF93DF931F92CDB7DEB78E01F6
:100980000F5F1F4F21E040E060E070E00E94060B27
:1009900089810F90DF91CF911F910F9108950F934F
:1009A0001F93CF93DF931F92CDB7DEB769838E017C
:1009B0000F5F1F4F21E040E060E070E00E94650A99
:1009C0000F90DF91CF911F910F9108951F93CF93B7
:1009D000DF931F92CDB7DEB7182F69830E94B8044A
:1009E0006981615021E030E001C0220F6A95EAF789
:1009F000622F60956823812F0F90DF91CF911F9117
:100A00000C94CF041F93CF93DF931F92CDB7DEB723
:100A1000182F69830E94B8046981615021E030E099
:100A200001C0220F6A95EAF7682F622B812F0F9081
:100A3000DF91CF911F910C94CF0496B1987F982BA2
:100A400096B9089527B130E4839FC00111242F7314
:100A5000282B27B90895379A85E00E941D0580E06C
:100A60000E9422053D9A089597B18F71907E892B3F
:100A700087B90895349A369A08950E9434050E94E1
:100A80003A05349BFECF85B10895CF93DF9385E07F
:100A900090E00E94BB0098E0899FE001112420971C
:100AA000C1F0CE0101960E94BB009E012E5F3F4F18
:100AB00087FD08C0C9010E94BB0090E00596C80FE1
:100AC000D91FEFCFC9010E94BB002596C80FD11DC9
:100AD0001DC084E090E00E94BB0098E0899FE00187
:100AE0001124209751F483E090E00E94BB0098E02D
:100AF000899FE0011124209749F0CE0101960E94C0
:100B0000BB0098E0899FC00DD11D1124CE01DF915B
:100B1000CF910895CF93DF93EB01811107C00E941D
:100B20004505888399831A8283E001C08FEFDF91A6
:100B3000CF910895CF92DF92EF92FF920F931F9380
:100B4000CF93DF931F92CDB7DEB74D3308F5FB018E
:100B500050819181F9014083882319F081E0840F4D
:100B600018C0C52ED12CD92A7901FFEFEF1AFF0A40
:100B70008601802F8C19841788F7C80149830E9449
:100B8000BB00F70181937F010F5F1F4F4981F1CFB8
:100B90008FEF0F90DF91CF911F910F91FF90EF900A
:100BA000DF90CF900895AF92BF92DF92EF92FF92C5
:100BB0000F931F93CF93DF931F92CDB7DEB7FC0146
:100BC0008B01218130E0322F22278081282BB9012F
:100BD000640F711D61307840C0F4DFB6F89458019D
:100BE0007901E01AF10A8A2D801B841758F4C70195
:100BF0008A0D9B1DF50161915F0149830E94B00040
:100C00004981F1CFDFBE842F01C08FEF0F90DF91BC
:100C1000CF911F910F91FF90EF90DF90BF90AF9019
:100C200008959F92AF92BF92CF92DF92EF92FF9280
:100C30000F931F93CF93DF93B82E8B0185E090E045
:100C40000E94BB0028E0829FE0011124209789F4D4
:100C500080E05FC0CF010E94BB00893199F0CE01D6
:100C600002960E94BB00282F30E02B5F3F4FC20F3F
:100C7000D31FCE0101960E94BB00FE0138967F0172
:100C800087FFE8CFC7010E94BB00893109F7CE0179
:100C90000A960E94BB007E01F0E18F9FE00CF11CE0
:100CA0001124C7010C960E94BB00B81688F6CB2C05
:100CB000D12C25E0B29EE001112433E0839FC00DCA
:100CC000D11D1124CE0DDF1DCE010D960E94BB005B
:100CD000982ECE010E960E94BB00A82ECE010F9634
:100CE0000E94BB00E82ECE0140960E94BB00F82E69
:100CF000CE0141960E94BB009B10AACFF801A082B2
:100D0000E182F282F601E055FE4F8081F801838393
:100D100084E0DF91CF911F910F91FF90EF90DF90D2
:100D2000CF90BF90AF909F900895CF93DF93C82F3F
:100D3000D62F613019F40E943E1F04C0611109C012
:100D40000E94401F811105C0EC2FF0E0E055FE4FDE
:100D5000D08380E0DF91CF91089580E00895FC0179
:100D600084E180831182128283E00895982F92702B
:100D700081FF06C0669561706093AE0190E007C088
:100D800080FF04C061706093AF0101C09FEF892FA5
:100D900008958091AE01880F82709091AF01892BE8
:100DA000809387020895813031F48091AD018F5F87
:100DB0008093AD0107C08091AC01811103C081E037
:100DC0008093AC0180E0089580E090E00E94BB0039
:100DD0008F3F11F40C946A020895BC018091710058
:100DE0008E7F80937100809171008D7F8093710060
:100DF00080E991E00E948B1F862F603138F07727C1
:100E0000CB01409797FD019695958795809370004B
:100E10000895909A919A1092C4011092C30184E1AE
:100E200090E00E94ED06E4E7F0E08081846080833A
:100E300010925F02808181608083808180648083E2
:100E400008958E7F91E0611101C090E0982B9093FE
:100E5000720008959093C4018093C3010895E4E75C
:100E6000F0E080818F70806A80830895E4E7F0E08D
:100E700080818F70806D8083089580937300E4E794
:100E8000F0E080818F70806880830895882329F046
:100E9000809174008F70806C04C0809174008F709A
:100EA000806880937400089590915F029111FCCF47
:100EB00092E090935F028E7F80935E02FA0183E15D
:100EC00092E0DC012A2F281B261718F421912D937C
:100ED000F9CF10921202609311020C942F071F9207
:100EE0000F920FB60F9211240BB60F922F933F93D0
:100EF0004F935F936F937F938F939F93AF93BF9322
:100F0000EF93FF9380917100887F803709F467C069
:100F100020F5803209F44AC080F4883009F443C0D7
:100F200038F48111BDC0809174008F70806DB4C0A1
:100F30008031C9F18831D1F1B3C0883309F44AC096
:100F400028F4883299F1803389F1AAC0803609F4F7
:100F500046C0883609F443C0A3C0803A09F45CC097
:100F600080F4883809F454C030F48837C1F18038EF
:100F700009F440C095C08039E9F1883909F448C0C6
:100F80008FC0883B09F466C038F4883A09F456C02B
:100F9000803B09F453C084C0803C09F479C0883C8C
:100FA00009F476C07DC080915E020EC0E09112020D
:100FB00080911102E81758F481E08E0F809312029D
:100FC000F0E0ED5EFD4F80810E943D0769C00E9408
:100FD000360764C0809174008F7080685DC085E0C2
:100FE00080935F0281E08093C501809173008093BC
:100FF000C60142C0E091C50181E08E0F8093C5011A
:1010000090917300F0E0EA53FE4F90838032A0F19C
:1010100080E00E94460744C0809174008F70806C0D
:1010200080937400E091C301F091C4013097B1F155
:1010300066EC71E08091C501099530C084E0809331
:101040005F02E091C101F091C20166EC71E0809114
:10105000C5010995E091120281E08E0F8093120282
:10106000F0E0ED5EFD4F808180937300909112025D
:1010700080911102981728F4809174008F70806C11
:1010800004C0809174008F7080688093740008C0E1
:10109000809174008F70806C8093740010925F0256
:1010A000FF91EF91BF91AF919F918F917F916F9140
:1010B0005F914F913F912F910F900BBE0F900FBEFC
:1010C0000F901F90189527E030E090E0AC01022EC1
:1010D00002C0559547950A94E2F740FF02C08D98EB
:1010E00001C08D9A00000000000000000000000018
:1010F00000000000000000000000000000000000F0
:1011000000000000000000000000000000000000DF
:1011100000000000000000000000000000000000CF
:1011200000000000000000000000000000000000BF
:10113000000000008C98000000000000000000008B
:10114000000000000000000000000000000000009F
:10115000000000000000000000000000000000008F
:10116000000000000000000000000000000000007F
:10117000000000000000000000000000000000006F
:101180000000000000008C9A2150310908F09ECF29
:101190008D9800000000000000000000000000002A
:1011A000000000000000000000000000000000003F
:1011B000000000000000000000000000000000002F
:1011C000000000000000000000000000000000001F
:1011D000000000000000000000000000000000000F
:1011E00000008C9880B300000000000000000000A8
:1011F00000000000000000000000000000000000EF
:1012000000000000000000000000000000000000DE
:1012100000000000000000000000000000000000CE
:1012200000000000000000000000000000000000BE
:101230000000000000008C9A000000000000000088
:10124000000000000000000000000000000000009E
:10125000000000000000000000000000000000008E
:10126000000000000000000000000000000000007E
:10127000000000000000000000000000000000006E
:10128000000000000000000085FB882780F991E045
:10129000892708958D9828E030E040E000000000A4
:1012A000000000000000000000000000000000003E
:1012B000000000000000000000000000000000002E
:1012C000000000000000000000000000000000001E
:1012D000000000000000000000000000000000000E
:1012E0000000000000000000000000008C98440F87
:1012F000859941600000000000000000000000002F
:1013000000000000000000000000000000000000DD
:1013100000000000000000000000000000000000CD
:1013200000000000000000000000000000000000BD
:1013300000000000000000000000000000000000AD
:10134000000000008C9A215031092115310509F067
:10135000A5CF8D9A892B11F08D9801C08D9A000030
:10136000000000000000000000000000000000007D
:10137000000000000000000000000000000000006D
:10138000000000000000000000000000000000005D
:10139000000000000000000000000000000000004D
:1013A00000000000000000000000000000008C9819
:1013B000000000000000000000000000000000002D
:1013C000000000000000000000000000000000001D
:1013D000000000000000000000000000000000000D
:1013E00000000000000000000000000000000000FD
:1013F00000000000000000000000000000000000ED
:101400008C9A8D98842F0895959894988D988C989F
:1014100000000000000000000000000000000000CC
:1014200000000000000000000000000000000000BC
:1014300000000000000000000000000000000000AC
:10144000000000000000000000000000000000009C
:10145000000000000000000000000000000000008C
:101460008C98000000000000000000000000000058
:101470000000000000008D98000000000000000047
:10148000000000000000000000000000000000005C
:10149000000000000000000000000000000000004C
:1014A000000000000000000000000000000000003C
:1014B000000000000000000000000000000000002C
:1014C00000000000000000000895CF92DF92EF922C
:1014D000FF920F931F93CF93DF9300D0CDB7DEB76A
:1014E000D62EF22EEFB6F8948D9A00000000000080
:1014F00000000000000000000000000000008C9AC6
:10150000880F49837A830E94630849817A81423037
:1015100049F4872F0E9463088D2D0E94630868019B
:101520000F0D03C04130D9F7F7CF0C1531F0F6019C
:1015300081916F010E946308F8CF8D9A000000002E
:10154000000000000000000000000000000000009B
:10155000000000000000000000000000000000008B
:10156000000000000000000000000000000000007B
:10157000000000000000000000000000000000006B
:101580000000000000000000000000008C98000037
:10159000000000000000000000000000000000004B
:1015A00000008D9800000000000000000000000016
:1015B000000000000000000000000000000000002B
:1015C000000000000000000000000000000000001B
:1015D000000000000000000000000000000000000B
:1015E00000000000000000000000000000000000FB
:1015F00000000000EFBE0F900F90DF91CF911F9180
:101600000F91FF90EF90DF90CF900895AF92BF922F
:10161000CF92DF92EF92FF920F931F93CF93DF93BE
:1016200000D0CDB7DEB7F62ED22EE82EEE0CCFB618
:10163000F8948D9A000000000000000000000000F7
:1016400000000000000000008C9A423041F48E2D12
:101650004A8379830E9463087981872F04C04130CF
:1016600041F48E2D4A830E9463088F2D0E946308E7
:101670004A8100000000000000000000000000009F
:10168000000000000000000000000000000000005A
:10169000000000000000000000000000000000004A
:1016A000000000000000000000000000000000003A
:1016B000000000000000000000000000000000002A
:1016C0000000442369F08C988D9A0000000000000F
:1016D00000000000000000000000000000008C9AE4
:1016E0008E2D81600E946308580100E010E0ED2C0F
:1016F000F12C81E0E81AF1080D1578F481E090E012
:101700000E151F0511F080E090E00E944A09F501D6
:1017100081935F010F5F1F4FEFCF8D9A0000000094
:1017200000000000000000000000000000000000B9
:1017300000000000000000000000000000000000A9
:101740000000000000000000000000000000000099
:101750000000000000000000000000000000000089
:101760000000000000000000000000008C98000055
:101770000000000000000000000000000000000069
:1017800000008D9800000000000000000000000034
:101790000000000000000000000000000000000049
:1017A0000000000000000000000000000000000039
:1017B0000000000000000000000000000000000029
:1017C0000000000000000000000000000000000019
:1017D00000000000CFBE0F900F90DF91CF911F91BE
:1017E0000F91FF90EF90DF90CF90BF90AF90089552
:1017F0009091800598609093800590FD12C0FB0148
:1018000024EC35E0D9019A2F921B981718F4919186
:101810009D93F9CF80930F0680918005816080931E
:10182000800508958091600208958093B6066093C4
:10183000B5068F3F19F410926102089581E08093FC
:10184000610208951092810580E88093820581E00D
:10185000809383051092840581E58093850589E254
:101860008093860580E68093870510928805109204
:10187000890585E380938A0582E180938B058BE05F
:1018800008950F931F93CF93DF93CDB7DEB7CC545A
:10189000D1090FB6F894DEBF0FBECDBF082F8091DF
:1018A000C20589832091B70630E02F5F3F4F220F9A
:1018B000331F220F331F9091B8069370922B9A8397
:1018C00062E0CE0101960E94221F8B838091640604
:1018D0008C839091FD06990F990F9D838091B90695
:1018E0008E830F838091B7068C3219F4188618E026
:1018F00001C017E0011119C0209163062223A9F04D
:1019000081E895E0FC01512F581B452F4E0F3E2FCB
:10191000381B321748F43191A1E0B0E0AC0FBD1F85
:10192000A40FB11D3C93F1CF120F612FCE01019690
:101930000E94221FE1E0F0E0EC0FFD1FE10FF11D1E
:101940008083AE014E5F5F4F612F8091C2050E9480
:101950005407809180058E7F80938005C45BDF4FA4
:101960000FB6F894DEBF0FBECDBFDF91CF911F91B0
:101970000F910895AF92CF92EF920F93109263065A
:1019800040916202242F30E09091B706F901EE5E9B
:10199000F94F90838091B906F901EB59F94F808393
:1019A00021E0240F2F3418F42093620202C0109219
:1019B00062029A3009F4ACC028F4943099F0963061
:1019C00059F06EC19E3209F40DC1903309F40AC179
:1019D0009C3209F4D3C064C1813009F061C10E9416
:1019E000220CFEC0813281F160F4813031F1F0F0DF
:1019F000803209F055C160E081E895E00E946C1CDE
:101A0000EFC0863209F45BC020F4823209F46AC068
:101A100047C1873209F446C08D3209F041C161E8FF
:101A200075E08091BC060E94ED1D42C06091BD062C
:101A30008091BC060E94150CD5C08091B60680939B
:101A400081058091B50660C06091C006662321F1D2
:101A500080916302909164024091BC0650E09C0129
:101A600033274217530709F019C12091BD0630E012
:101A7000892F99272817390709F010C121E835E087
:101A80004091C1068EEB96E00E94771C809363061E
:101A90008F3F09F0A7C006C121E835E04091C1069B
:101AA00060E0F0CF61E875E08091BC060E94CD1C3B
:101AB000809363068F3F09F095C08DECF4C0A09031
:101AC000C306C090C206E090C1060091C0062091F6
:101AD000BF064091BE066091BD068091BC060E9483
:101AE0004F1DE6CF8091630290916402019611F43C
:101AF00081E090E09093640280936302909163028E
:101B000080916402909381058093820582E068C091
:101B1000813189F08231D1F0803109F0C1C061E8B2
:101B200075E08091BC060E948A05809363068F3F12
:101B300009F058C0B5C021E835E04091BF066DEB13
:101B400076E08091BC060E949A05A0CF8091BC06E9
:101B500081110DC04091BA0643506FEB76E08DEBDA
:101B600096E00E94D3058093630680E001C081EC7B
:101B7000909163069F3F09F096C094C0482F50E0B3
:101B80004D32510508F081C0FA01EA5BFF4F0C9419
:101B90009F1F81E895E00E94AF0622C081E08093FC
:101BA00063060E94B604809381051CC09091BD0617
:101BB0008091BE06913019F4843009F471C08430EC
:101BC00019F40E9430040EC00E94A7048F3F51F404
:101BD0008CEC69C061E875E08091BD060E949910A7
:101BE0008093630680E05FC041E855E06091BE06E7
:101BF0008091BD060E94A4100AC02091C0064091A9
:101C0000BF066091BE068091BD060E94BA13809304
:101C10006306DCCF41E855E06091BE068091BD06C9
:101C20000E946210F4CF8091BE060E94D306CECFF0
:101C30006091BF068091BE060E94B606C7CF0E9483
:101C4000C9068093810581E0CBCF8091BE068111CA
:101C500029C061E875E08091BD060E94201E16CF64
:101C60006091C1068091BD060E949506B9CF61E8DA
:101C700075E08091BD060E941106B2CF6091BF064B
:101C80008091BD060E94AD06ABCF23E636E041E869
:101C900055E06CEB76E00E948E0305C085EC03C036
:101CA00081EC01C089EC0F91EF90CF90AF900C9434
:101CB000410C8091800580FF9AC04091C60562E08A
:101CC00084EC95E00E942E1F811191C060910F0657
:101CD000E62FF0E0ED53FA4F6150408184EC95E03F
:101CE0000E942E1F811183C08091C40580936406D9
:101CF0008091C505869586958093B7069091C70516
:101D00009093C2052091C805322F369536953093B1
:101D1000FD0623702093B8062091C9052093B906CB
:101D200080FF3FC08091B606981361C08091800506
:101D30008E7F80938005109262061092FE0680913D
:101D4000CA05882321F080916502833030F141E09B
:101D50005CE4809166024817D0F4842F90E09C01E7
:101D600021503109529FD001539FB00D1124A85723
:101D7000BD4F589FF001599FF00D1124E857FD4FBA
:101D8000852F01900D928A95E1F74F5FE2CF815048
:101D9000809366021092650208958F5F80936502BA
:101DA000089580910F068830E0F090E09C01275064
:101DB00031093093BB062093BA0646E02A5F3F4FB5
:101DC000EAEFE40F842F90E08217930774F4F0E0B9
:101DD000E954F94FDC01AC53BA4F8C9185834F5FC6
:101DE000EFCF1092BB061092BA060C94BA0C08956D
:101DF000CF92DF92EF92FF920F931F93CF93DF93D7
:101E000000D0CDB7DEB7F82E8A01809166028A3005
:101E100008F067C0909111069F5F909311065CE4F3
:101E2000E52EE89E60011124A60148575D4F6A0126
:101E3000990F990FFA01948382E0858384E0868369
:101E40008F2D2A8369830E944F1EF601878380911C
:101E50006602E89E60011124A60148575D4F6A01A1
:101E6000FA01F0868F2D0E94571E8F776981862B8D
:101E7000F601818730916602832F90E02A81222328
:101E800019F0F801408101C04FEF5CE4589FF00168
:101E9000599FF00D1124E857FD4F4287223018F06A
:101EA000F801418101C04FEF5CE4589FF001599F58
:101EB000F00D1124E857FD4F4387233018F0F80147
:101EC000228101C02FEF4CE4489FF001499FF00DA3
:101ED0001124E857FD4F24873F5F3093660280E06E
:101EE00001C081E00F900F90DF91CF911F910F9172
:101EF000FF90EF90DF90CF90089581E08093FE06F1
:101F00008091B606809388028091B50683708061C7
:101F1000809389028091100680938B0262E088E8AA
:101F200092E00E94221F80938A026DE088E892E08E
:101F30000E94221F8093950249E852E06DE0809153
:101F4000B6060C9454078091B6068F3F69F08091D5
:101F50006602882349F08091FE06811105C08091B8
:101F6000800580FF0C947D0F08951F93CF93DF931E
:101F7000BB98BA98B998B89AC09880B5846080BD6B
:101F800084E690E00E947F1E16B313FB112710F920
:101F9000D6B3D2FBDD27D0F9C6B3C695C170C09ABF
:101FA00084E690E00E947F1E86B383FB882780F939
:101FB000181302C0212F01C022E086B382FB8827BC
:101FC00080F9D81302C09D2F01C092E086B3869598
:101FD0008170C81302C08C2F01C082E021110FC094
:101FE000911105C0823009F041C082E740C09230B3
:101FF000E9F5882379F18230C9F586E738C02230C7
:10200000B9F4911106C0882339F1823079F58AE755
:102010002EC0923029F4882309F18130B9F420C010
:10202000913021F58230F1F0813001F582E81FC056
:10203000923031F48230C1F08130C1F486E817C0AB
:102040009130A1F4823091F488E811C0823071F4AB
:1020500080EF0DC084E70BC088E709C08CE707C09C
:102060008EE705C080E803C084E801C080E090B539
:102070009B7F90BD811101C080E7DF91CF911F91BF
:1020800008950E9409070E94B50F809310066FEF14
:102090000E94210788EF9BE00E942A078FEF809320
:1020A000B60681E0809311061092B5061092620682
:1020B00080936002089580911006811102C00C94F3
:1020C000B50F0895DA0181112EC0633060F58CE000
:1020D000689FF0011124E150F94F84818C93808135
:1020E00011968C931197828112968C93129783810B
:1020F00013968C93139784818B7F8230B1F4818106
:1021000014968C931497828115968C9315978381DE
:1021100016968C9316978481863049F4868117969B
:102120008C9388E008958FEF089584E0089587E008
:102130000895FB0197E09083811103C083E08183C0
:1021400001C0118282E00895DA0181111AC0633062
:10215000C0F48CE0689FF0011124E150F94F81E058
:1021600090E0038002C0880F991F0A94E2F78C93D5
:10217000838111968C931197838112968C9383E0BF
:1021800008958FEF0895FC018681428150E08823F5
:1021900009F45BC04730510508F0B8C04D585F4F97
:1021A0002381FA010C949F1F3BB381E090E0022E43
:1021B00001C0880F0A94EAF7382B3BBB089538B367
:1021C00081E090E0022E01C0880F0A94EAF7382BD4
:1021D00038BB089535B381E090E0022E01C0880F2E
:1021E0000A94EAF7382B35BB089532B381E090E0CA
:1021F000022E01C0880F0A94EAF7382B32BB0895EB
:1022000033B181E090E0022E01C0880F0A94EAF712
:10221000382B33B908953091620081E090E0022EAE
:1022200001C0880F0A94EAF7382B309362000895B2
:102230003091650081E090E0022E01C0880F0A9481
:10224000EAF7382B3093650008954730510508F0C0
:102250005DC046585F4F2381FA010C949F1F3BB32A
:1022600081E090E0022E01C0880F0A94EAF7809581
:1022700083238BBB089538B381E090E0022E01C028
:10228000880F0A94EAF78095832388BB089535B3B5
:1022900081E090E0022E01C0880F0A94EAF7809551
:1022A000832385BB089532B381E090E0022E01C004
:1022B000880F0A94EAF78095832382BB089533B18F
:1022C00081E090E0022E01C0880F0A94EAF7809521
:1022D000832383B908953091620081E090E0022E5B
:1022E00001C0880F0A94EAF78095832380936200E7
:1022F00008953091650081E090E0022E01C0880FC2
:102300000A94EAF780958323809365000895FC0181
:102310008781428150E0882309F45BC04730510532
:1023200008F0B8C04F575F4F2381FA010C949F1FEC
:102330003BB381E090E0022E01C0880F0A94EAF7D7
:10234000382B3BBB089538B381E090E0022E01C0EA
:10235000880F0A94EAF7382B38BB089535B381E02B
:1023600090E0022E01C0880F0A94EAF7382B35BBA3
:10237000089532B381E090E0022E01C0880F0A94E4
:10238000EAF7382B32BB089533B181E090E0022E9A
:1023900001C0880F0A94EAF7382B33B908953091B9
:1023A000620081E090E0022E01C0880F0A94EAF7F3
:1023B000382B3093620008953091650081E090E001
:1023C000022E01C0880F0A94EAF7382B309365007B
:1023D00008954730510508F05DC048575F4F23818D
:1023E000FA010C949F1F3BB381E090E0022E01C0E4
:1023F000880F0A94EAF7809583238BBB089538B33E
:1024000081E090E0022E01C0880F0A94EAF78095DF
:10241000832388BB089535B381E090E0022E01C08C
:10242000880F0A94EAF78095832385BB089532B319
:1024300081E090E0022E01C0880F0A94EAF78095AF
:10244000832382BB089533B181E090E0022E01C066
:10245000880F0A94EAF78095832383B90895309111
:10246000620081E090E0022E01C0880F0A94EAF732
:10247000809583238093620008953091650081E008
:1024800090E0022E01C0880F0A94EAF7809583231A
:10249000809365000895FF920F931F93CF93DF936E
:1024A000CDB7DEB7E0970FB6F894DEBF0FBECDBF55
:1024B000F42E28E1FE017996DF01922F1D929A9564
:1024C000E9F791E09B8F37E03C8F9D8F98A39BA30A
:1024D00035E03CA332E03DA33FEF3EA398A79BA786
:1024E00036E03CA733E03DA798ABDE0111960190A2
:1024F0000D922A95E1F7062F10E0ACE06A9FF001FB
:102500001124E150F94F94819B7F9230E9F18111C0
:1025100031C0F80183E0EE0FFF1F8A95E1F781E0FB
:1025200090E08C0F9D1FE80FF91F8081882319F020
:10253000813071F01FC09FEF491304C0CF010E948A
:10254000C31018C0411116C0CF010E94871112C0DC
:10255000AFEF4A1302C0868103C041110BC08781CF
:102560006381882321F081810E94020503C081815B
:102570000E94E6048CE0809FF001819FF00D112401
:10258000E150F94FF082F582E0960FB6F894DEBF85
:102590000FBECDBFDF91CF911F910F91FF90089596
:1025A000CF92DF92EF92FF920F931F93CF93DF931F
:1025B000CDB7DEB7E0970FB6F894DEBF0FBECDBF44
:1025C00098E1FE017996DF01892F1D928A95E9F73E
:1025D00081E08B8F27E02C8F8D8F88A38BA325E044
:1025E0002CA322E02DA32FEF2EA388A78BA726E0F4
:1025F0002CA723E02DA788ABDE01119601900D9248
:102600009A95E1F77E01A6E0EA0EF11C03E017E0DF
:10261000D12CCC24C394F7014081F8013497408336
:1026200031964083319610823196D70111978C9163
:102630008083D801CC926D2D80E00E944B12D39400
:10264000B8E0EB0EF11C045F1F4FE3E0DE12E3CFB6
:10265000E0960FB6F894DEBF0FBECDBFDF91CF91ED
:102660001F910F91FF90EF90DF90CF900895FF9210
:102670000F931F93CF93DF93CDB7DEB7E0970FB6DD
:10268000F894DEBF0FBECDBFF42E28E1FE0179968F
:10269000DF01922F1D929A95E9F791E09B8F37E029
:1026A0003C8F9D8F98A39BA335E03CA332E03DA3D4
:1026B0003FEF3EA398A79BA736E03CA733E03DA79A
:1026C00098ABDE01119601900D922A95E1F7062F45
:1026D00010E0ACE06A9FF0011124E150F94F9481C1
:1026E0009130E1F1811131C0F80193E0EE0FFF1F4D
:1026F0009A95E1F781E090E08C0F9D1FE80FF91F9C
:102700008081882319F0813071F01FC09FEF491339
:1027100004C0CF010E94C31018C0411116C0CF01E0
:102720000E94871112C0AFEF4A1302C0868103C016
:1027300041110BC087816381882321F081810E9430
:10274000020503C081810E94E6048CE0809FF001B5
:10275000819FF00D1124E150F94FF582E0960FB6FC
:10276000F894DEBF0FBECDBFDF91CF911F910F91C7
:10277000FF900895811145C0633008F042C0862F54
:1027800090E03CE0639FF0011124E150F94F348167
:102790003630B9F15FEF540F5A3F30F44183228352
:1027A00082E08483238727C05E3F28F04183128222
:1027B00082E0848321C04C3F39F481E084834081EE
:1027C00080E00E944B121BC04B3FD9F427FD19C07B
:1027D000313011F43CEF01C0318137833CE0389F48
:1027E000F001399FF00D1124E150F94F86E0848308
:1027F0002683118610864FEF80E00E94371380E019
:1028000008958FEF0895BF92CF92DF92EF92FF92DB
:102810000F931F93CF93DF9303E017E021E0C22EC5
:1028200027E0D22ECAE0D7E030E0E32E37E0F32EE7
:10283000B12CF80180818630D9F48481958101968C
:1028400095838483FE0135972081FAE02F9F9001C4
:1028500011248217930750F1F8011082F6012081AC
:10286000FE01349740816B2D80E00E94BA131EC098
:10287000F701808181508A3FC8F488818250888323
:10288000811114C0FE0136978081882339F08F3F73
:1028900069F4F7018081888340E004C0F6018081FB
:1028A00088834FEF6B2D80E00E943713045F1F4F2A
:1028B000FCE0CF0ED11CB3942C964CE0E40EF11C3E
:1028C00083E0B812B6CFDF91CF911F910F91FF90A7
:1028D000EF90DF90CF90BF9008950E9482030E94F6
:1028E00007040E94E4060E94040A0E94D0120E947B
:1028F0002B050E94D5140E9465150E945F1E0E9440
:10290000B50F803F11F40C94881F88B1479A0E943C
:102910003D1F0E9441100E94B31E0E941D0340E013
:1029200061E080E00E944B12789480E0089588E195
:102930000FB6F89481BD11BC0FBE0E946D148111B9
:1029400031C02FE088E190E00FB6F894A89581BDE2
:102950000FBE21BDA8950E94590E0E944C040E94F2
:1029600084030E943E0380E00E943D05813810F000
:102970004FEF01C040E062E080E00E944B120E94F5
:102980001D1F882321F00E945F1E0E94A30F85B7A0
:10299000837E85BF85B7806285BF889585B78F7D2B
:1029A00085BFD8CF80E090E00895CF93DF930E9459
:1029B0005B1091E0909323071092240791E5909388
:1029C000250792E19093260796E1909327071092AE
:1029D00028071092290710922A0799E290932B0753
:1029E00010922C0710922D0710922E0791EC9093C5
:1029F0002F07109230071092310798EC909332070E
:102A000094E59093330795E6909334072DE6209351
:102A1000350720E7209336072CE62093370721E679
:102A20002093380724E72093390790933A0723E44B
:102A300031E0309376072093750793E390937907FD
:102A400027E031E030937407209373079CE3909361
:102A5000780723E237E0309372072093710798E1FB
:102A600090937707282F30E0205731093595279527
:102A70002066C7E7D7E0E1E7F7E090E0A081B18109
:102A80003991355014963C93A081B18113963C91B5
:102A900013974FEF430F423020F419962C93199758
:102AA00005C0323119F41D962C931D979C93A0817B
:102AB000B18111961C92A191B19115968C939F5F53
:102AC0009330E1F6DF91CF910895CF93DF93CBE37D
:102AD000D7E020E030E080E090E070ECE1E7F7E064
:102AE00060E0A191B19113964C91139741504230FF
:102AF00040F417964C91552747FD509548175907B4
:102B000019F06F5F633069F7E62FF0E0EE0FFF1FFB
:102B1000EF58F84FA081B18113964C9113974883D9
:102B2000F901E55CF84F1C964C911C9745831D9666
:102B30004C911D9747831182138214821282608701
:102B4000768313964C911397413009F04FC05496F9
:102B50004C915497407C51E009F450E051871F9606
:102B60006C911F971E964C911E97552747FD5095C7
:102B7000542F4427462B5E8B4D8B51966C91519769
:102B800050964C915097552747FD5095542F442708
:102B9000462B588F4F8B5F964C915F97428790964C
:102BA0004C919097438791964C9191974487949636
:102BB0004C919497458795964C9195974687969614
:102BC0004C919697478797964C919797408B9896FC
:102BD0004C919897418B99964C919997428B9A96E4
:102BE0004C919A97438B9B964C91448B0196255E12
:102BF0003F4F6B968230910509F070CFDF91CF91F6
:102C00000C94721FCF92DF92EF92FF920F931F935B
:102C1000CF93DF931F92CDB7DEB7D82EE82EF12CDD
:102C20008BE1D89E900111248901055C184FF801B1
:102C3000C080F1E0CF1246C6F8016381643009F428
:102C400058C548F4613009F436C308F4FFC2623055
:102C500009F432C42DC6603109F4DCC0603221F0C1
:102C6000683009F025C6DBC1F80191854181658591
:102C70008389992309F465C0552747FD5095992705
:102C800087FD909580959095860F911D67FD9A958B
:102C900084179507E4F0F901EC5AF84F808180FF22
:102CA0000CC09BE099838E7F808321E0AE014F5F53
:102CB0005F4F60E88D2D0E94F80E8BE18E9DF00134
:102CC0008F9DF00D1124E55CF84F80E183838BE14B
:102CD0008E9DF0018F9DF00D1124DF01A55CB84F92
:102CE00014969C91149713968C911397981761F0F2
:102CF00011969C9111971D968C9189172CF0EC5A86
:102D0000F84F808181FF5FC08BE18E9DF0018F9D28
:102D1000F00D1124DF01A55CB84F11962C9111978D
:102D2000332727FD30951D964C911D9754968C9115
:102D3000992787FD90950196840F911D47FD9A95DF
:102D40005CC050E090E080959095860F911D8417AF
:102D50009507E4F0F901EC5AF84F808180FF0CC030
:102D60009BE099838E7F808321E0AE014F5F5F4FB0
:102D700060E88D2D0E94F80E8BE18E9DF0018F9DF5
:102D8000F00D1124E55CF84F80E183838BE18E9D8B
:102D9000F0018F9DF00D1124DF01A55CB84F149652
:102DA0009C91149713968C911397981781F0119614
:102DB0009C9111971D968C91891748F0EC5AF84F09
:102DC000808181FD04C09AE0998382603FC58BE1D8
:102DD0008E9DF0018F9DF00D1124DF01A55CB84F91
:102DE00011962C91119730E01D964C911D97549699
:102DF0008C9190E00196840F911D281739070CF4EF
:102E000057C5EC5AF84F808181FF52C59AE09983EB
:102E10008D7F45C5F801918541818585992309F408
:102E20007DC048179CF08BE08983F901EC5AF84F7C
:102E300080818160808321E0AE014F5F5F4F60E061
:102E40008D2D0E94F80E80E2F8012DC0552747FD18
:102E50005095F80166858389992787FD909580951F
:102E60009095860F911D67FD9A9584179507E4F05C
:102E7000F901EC5AF84F808182FF0CC099E09983E8
:102E80008B7F808321E0AE014F5F5F4F60E88D2D27
:102E90000E94F80E8BE18E9DF0018F9DF00D1124A4
:102EA000E55CF84F88E083838BE18E9DF0018F9D78
:102EB000F00D1124DF01A55CB84F14969C91149776
:102EC00013968C911397981761F011969C91119716
:102ED0001E968C9189172CF0EC5AF84F808183FF55
:102EE00077C08BE18E9DF0018F9DF00D1124DF01E5
:102EF000A55CB84F11962C911197332727FD30957B
:102F00001E964C911E9754968C91992787FD90950B
:102F10000196840F911D47FD9A9574C0481798F04B
:102F20008BE08983F901EC5AF84F808181608083BE
:102F300021E0AE014F5F5F4F60E08D2D0E94F80EE3
:102F400080E2F80127C050E0F8016685838990E0AF
:102F500080959095860F911D84179507E4F0F901EF
:102F6000EC5AF84F808182FF0CC099E099838B7FE7
:102F7000808321E0AE014F5F5F4F60E88D2D0E949E
:102F8000F80E8BE18E9DF0018F9DF00D1124E55C14
:102F9000F84F88E083838BE18E9DF0018F9DF00DCB
:102FA0001124DF01A55CB84F14969C9114971396D9
:102FB0008C911397981781F011969C9111971E96FA
:102FC0008C91891748F0EC5AF84F808183FD04C03A
:102FD00098E0998388603AC48BE18E9DF0018F9DC3
:102FE000F00D1124DF01A55CB84F11962C911197BB
:102FF00030E01E964C911E9754968C9190E001966D
:10300000840F911D281739070CF452C4EC5AF84F5D
:10301000808183FF4DC498E09983877F40C4F80185
:10302000918541818685992309F486C04817A4F0CB
:1030300089E08983F901EC5AF84F808184608083AC
:1030400021E0AE014F5F5F4F60E08D2D0E94F80ED2
:1030500080E1F801838336C0552747FD5095F8017C
:1030600067858389992787FD909580959095860F30
:10307000911D67FD9A958417950724F1F901EC5A83
:10308000F84F808184FF15C087E089838BE18E9D96
:10309000F0018F9DF00D1124EC5AF84F80818F7E46
:1030A000808321E0AE014F5F5F4F60E88D2D0E946D
:1030B000F80E8BE18E9DF0018F9DF00D1124E55CE3
:1030C000F84F13828BE18E9DF0018F9DF00D11243E
:1030D000DF01A55CB84F14969C91149713968C91C0
:1030E0001397981761F011969C9111971F968C91E8
:1030F00089172CF0EC5AF84F808185FF80C08BE156
:103100008E9DF0018F9DF00D1124DF01A55CB84F5D
:1031100011962C911197332727FD30951F964C91CE
:103120001F9754968C91992787FD90950196840F4F
:10313000911D47FD9A957DC04817A0F089E08983CD
:10314000F901EC5AF84F80818460808321E0AE0160
:103150004F5F5F4F60E08D2D0E94F80E80E1F80117
:10316000838330C050E0F8016785838990E08095C3
:103170009095860F911D8417950724F1F901EC5A5B
:10318000F84F808184FF15C087E089838BE18E9D95
:10319000F0018F9DF00D1124EC5AF84F80818F7E45
:1031A000808321E0AE014F5F5F4F60E88D2D0E946C
:1031B000F80E8BE18E9DF0018F9DF00D1124E55CE2
:1031C000F84F13828BE18E9DF0018F9DF00D11243D
:1031D000DF01A55CB84F14969C91149713968C91BF
:1031E0001397981781F011969C9111971F968C91C7
:1031F000891748F0EC5AF84F808185FD04C096E0AD
:103200009983806223C38BE18E9DF0018F9DF00D29
:103210001124DF01A55CB84F11962C91119730E075
:103220001F964C911F9754968C9190E00196840FB5
:10323000911D281739070CF43BC3EC5AF84F8081D5
:1032400085FF36C396E099838F7D29C3F8014185B8
:1032500081819785442341F0891744F4F8019289CC
:1032600098170CF425C31BC08917A0F087E0898349
:10327000F901EC5AF84F80818061808321E0AE0132
:103280004F5F5F4F60E08D2D0E94F80E88E0F801DF
:1032900083830EC3F8019289981708F409C3198231
:1032A00021E0AE014F5F5F4F60E08D2D0E94F80E70
:1032B000F801C382FDC2F80191854181818999237A
:1032C00009F479C08417A4F083E08983F901EC5AEA
:1032D000F84F81818160818321E0AE014F5F5F4FB4
:1032E00060E08D2D0E94F80E82E0F80183832CC0EF
:1032F000552747FD5095F80172898389992787FDE5
:1033000090950196870F911D77FD9A95481759075B
:10331000DCF0F901EC5AF84F808184FF0CC069831E
:1033200081818B7F818321E0AE014F5F5F4F60E839
:103330008D2D0E94F80E8BE18E9DF0018F9DF00D7A
:103340001124E55CF84F13828BE18E9DF0018F9D77
:10335000F00D1124DF01A55CB84F14969C911497D1
:1033600013968C911397981741F011969C91119791
:1033700052968C9198170CF072C08BE18E9DF001E3
:103380008F9DF00D1124DF01A55CB84F11962C9193
:103390001197332727FD309552964C9152975496AA
:1033A0008C91992787FD909580959095840F911D1C
:1033B00047FD9A9571C08417A0F083E08983F901D5
:1033C000EC5AF84F81818160818321E0AE014F5F2B
:1033D0005F4F60E08D2D0E94F80E82E0F80183833C
:1033E00026C050E0F8017289838990E00196870F2A
:1033F000911D48175907DCF0F901EC5AF84F80810C
:1034000084FF0CC0698381818B7F818321E0AE01C1
:103410004F5F5F4F60E88D2D0E94F80E8BE18E9D0F
:10342000F0018F9DF00D1124E55CF84F13828BE1C4
:103430008E9DF0018F9DF00D1124DF01A55CB84F2A
:1034400014969C91149713968C911397981769F082
:1034500011969C91119752968C91981730F0198281
:10346000EC5AF84F8181886026C18BE18E9DF00176
:103470008F9DF00D1124DF01A55CB84F11962C91A2
:10348000119730E052964C91529754968C9190E05F
:1034900080959095840F911D821793070CF408C2B4
:1034A000DF01AB5AB84F8C9183FF02C21982EC5AEC
:1034B000F84F8181877F99C0F8014185818190898A
:1034C000442309F494C098179CF085E08983F9019E
:1034D000EC5AF84F80818064808321E0AE014F5F19
:1034E0005F4F60E08D2D0E94F80E84E0F80136C039
:1034F000482F552747FD5095F80161898389992701
:1035000087FD90950196860F911D67FD9A95481746
:1035100059072CF1F901EC5AF84F808182FF15C050
:1035200083E089838BE18E9DF0018F9DF00D112446
:10353000EC5AF84F81818E7F818321E0AE014F5F8D
:103540005F4F60E88D2D0E94F80E8BE18E9DF0019B
:103550008F9DF00D1124E55CF84F81E083838BE1B2
:103560008E9DF0018F9DF00D1124DF01A55CB84FF9
:1035700014969C91149713968C911397981741F079
:1035800011969C91119751968C9198170CF08DC0C3
:103590008BE18E9DF0018F9DF00D1124DF01A55C64
:1035A000B84F11962C911197332727FD30955196DE
:1035B0004C91519754968C91992787FD90958095C1
:1035C0009095840F911D47FD9A95821793070CF4EF
:1035D0006FC1DF01AB5AB84F8C9181FF69C182E0A6
:1035E0008983EC5AF84F81818D7F818359C1981767
:1035F00098F085E08983F901EC5AF84F8081806466
:10360000808321E0AE014F5F5F4F60E08D2D0E940F
:10361000F80E84E0F80130C090E0F8016189438938
:1036200050E04F5F5F4F460F511D841795072CF1F7
:10363000F901EC5AF84F808182FF15C083E089833D
:103640008BE18E9DF0018F9DF00D1124EC5AF84F07
:1036500081818E7F818321E0AE014F5F5F4F60E803
:103660008D2D0E94F80E8BE18E9DF0018F9DF00D47
:103670001124E55CF84F81E083838BE18E9DF0019E
:103680008F9DF00D1124DF01A55CB84F14969C911D
:10369000149713968C911397981779F011969C9123
:1036A000119751968C91981740F082E08983EC5ADB
:1036B000F84F818182608183CAC08BE18E9DF001C9
:1036C0008F9DF00D1124DF01A55CB84F11968C91F0
:1036D000119790E051964C91519754962C9130E06F
:1036E00020953095240F311D281739070CF4E0C0C0
:1036F00070CFF8019185818143896089992309F40C
:1037000062C0992787FD9095552747FD50954F5FDB
:103710005F4F460F511D67FD5A9584179507E4F0DA
:10372000F901EC5AF84F808180FF0CC095E0998335
:103730008F7B808321E0AE014F5F5F4F60E88D2D6E
:103740000E94F80E8BE18E9DF0018F9DF00D1124EB
:10375000E55CF84F82E083838BE18E9DF0018F9DC5
:10376000F00D1124DF01A55CB84F14969C911497BD
:1037700013968C911397981741F011969C9111977D
:1037800050968C9198170CF05BC08BE18E9DF001E8
:103790008F9DF00D1124DF01A55CB84F11968C911F
:1037A0001197992787FD909551964C915197549672
:1037B0002C91332727FD309520953095240F311D0E
:1037C00047FD3A9561C090E050E04F5F5F4F460F74
:1037D000511D84179507E4F0F901EC5AF84F8081E8
:1037E00080FF0CC095E099838F7B808321E0AE0140
:1037F0004F5F5F4F60E88D2D0E94F80E8BE18E9D2C
:10380000F0018F9DF00D1124E55CF84F82E0838379
:103810008BE18E9DF0018F9DF00D1124DF01A55CE1
:10382000B84F14969C91149713968C9113979817F0
:10383000A1F011969C91119750968C91981768F071
:1038400084E08983EC5AF84F80818068808321E08E
:10385000AE014F5F5F4F60E028C08BE18E9DF001AD
:103860008F9DF00D1124DF01A55CB84F11968C914E
:10387000119790E051964C91519754962C9130E0CD
:1038800020953095240F311D281739078CF0EC5AFC
:10389000F84F808187FF0CC094E099838F778083F5
:1038A00021E0AE014F5F5F4F60E88D2D0E94F80E62
:1038B0008BE18E9DF0018F9DF00D1124E55CF84F9A
:1038C000838184830F90DF91CF911F910F91FF909F
:1038D000EF90DF90CF900895662311F023E001C0B0
:1038E00022E0FC01208321E0218382E00895CF9330
:1038F000DF93EC01D901E981F0E0FE2FEE2788810A
:10390000E82BE430F10508F042C04D3308F03FC029
:103910006134E8F5E330F10561F0242F30E0260F43
:10392000311DEF01C958D84FC881D0E0C217D30765
:1039300074F19F012F5F3F4F2330310538F481E050
:103940008E0F8C9311961C92119708C08FEF8C9359
:1039500011968C931197E330F105D9F0ED01229681
:1039600020E030E0EE0FFF1FEF58F84F70E0241713
:1039700058F4A081B181A20FB31FA60FB71F8C917D
:1039800089932F5F3F4FF3CF82E0840F03C08FEF07
:1039900001C082E0DF91CF910895CF93DF93FB01C7
:1039A000282F30E0233031050CF073C0823008F04E
:1039B00072C08BE1829FD001839FB00D1124A55C62
:1039C000B84F1896CC911897D0E0CC0FDD1FCF5888
:1039D000D84F0990D881C02D8B81813009F051C01A
:1039E0008FE380831896CC911897D0E0CC0FDD1F21
:1039F000CF58D84F0990D881C02D89A581831896BA
:103A0000CC911897D0E0CC0FDD1FCF58D84F09903C
:103A1000D881C02D88A582831896CC911897D0E0C4
:103A2000CC0FDD1FCF58D84F0990D881C02D8FA162
:103A300083831896CC911897D0E0CC0FDD1FCF5818
:103A4000D84F0990D881C02D8EA184831896CC912F
:103A50001897D0E0CC0FDD1FCF58D84F0990D881F0
:103A6000C02D8DA185831896AC91B0E0AA0FBB1F25
:103A7000AF58B84F0D90BC91A02D94968C91868331
:103A80000AC0108211821282138214821582168259
:103A900002C08FEF01C087E0DF91CF910895AF9210
:103AA000CF92EF920F93E82FF0E0E330F1050CF0A6
:103AB0008EC0823008F089C08BE18E9FD0018F9F2D
:103AC000B00D1124A55CB84F1896AC91B0E0AA0FC8
:103AD000BB1FAF58B84F0D90BC91A02D13968C9181
:103AE0001397813009F071C060FF02C099964C9322
:103AF00061FF14C08BE18E9FD0018F9FB00D112408
:103B0000A55CB84F1896AC91B0E0AA0FBB1FAF5898
:103B1000B84F0D90BC91A02D98962C9362FF14C0C5
:103B20008BE18E9FD0018F9FB00D1124A55CB84F03
:103B30001896AC91B0E0AA0FBB1FAF58B84F0D90CC
:103B4000BC91A02D97960C9363FF14C08BE18E9FC0
:103B5000D0018F9FB00D1124A55CB84F1896AC9181
:103B6000B0E0AA0FBB1FAF58B84F0D90BC91A02D6D
:103B70009696EC9264FF14C08BE18E9FD0018F9FCC
:103B8000B00D1124A55CB84F1896AC91B0E0AA0F07
:103B9000BB1FAF58B84F0D90BC91A02D9596CC92FD
:103BA00065FF13C08BE18E9FD0018F9FB00D112454
:103BB000A55CB84F1896EC91F0E0EE0FFF1FEF58A0
:103BC000F84F0190F081E02DA4A280E001C08FEFBA
:103BD0000F91EF90CF90AF900895FB0190E083306C
:103BE000910564F52BE1289FD001299FB00D112488
:103BF000A55CB84F15962C911597223F11F41082B1
:103C000003C011962C9120832BE1289FD001299F7E
:103C1000B00D1124A55CB84F16968C911697818330
:103C200015968C911597823F19F411968C9102C0CC
:103C300013968C918283138284E008958FEF089508
:103C4000811109C080912307FB01808380912407A3
:103C5000818382E008958FEF08959BE1899FF001B1
:103C60001124E55CF84F618308959BE1899FF00181
:103C70001124E55CF84F818108959BE1899FF00153
:103C80001124E55CF84F81E0828308959BE1899FD0
:103C9000F0011124E55CF84F8281128208959BE1C6
:103CA000899FF0011124E55CF84F858108959BE11F
:103CB000899FF0011124E55CF84F878108950E94E7
:103CC000731F80E00E943D05809357078091410754
:103CD000803C41F4809140078150823018F480E0AC
:103CE0000E94021680915C07803C41F480915B0742
:103CF0008150823018F481E00C94021608950396E6
:103D000066E170E00E948B1F8CE0869F9001879F88
:103D1000300D112480E090E08217930719F0000025
:103D20000196FACF0895039666E170E00E948B1F1A
:103D30008CE0869FA001879F500D112428EE33E070
:103D400080E090E08417950719F000000196FACF03
:103D5000215031092115310599F7089593B7987FBE
:103D6000982B93BF089510927B0710927A071092B8
:103D70006B0210926A02109269021092680210920D
:103D8000670283B7886083BF83E00E94AE1E12BEC5
:103D90008CE881BF87B7826087BF08951F920F921A
:103DA0000FB60F9211240BB60F922F933F934F93A0
:103DB0005F936F937F938F939F93AF93BF93EF9393
:103DC000FF938091690290916A02019690936A0232
:103DD0008093690220916702309168022F5F3F4F04
:103DE0003093680220936702099734F010926A02B8
:103DF000109269020E9403148091670290916802F8
:103E0000843691053CF081E080936B021092680249
:103E100010926702FF91EF91BF91AF919F918F91A7
:103E20007F916F915F914F913F912F910F900BBEBA
:103E30000F900FBE0F901F90189580916B021092FB
:103E40006B02089520E0615030F0FC01E60FF11D97
:103E50003081230FF8CF822F81950895CF93DF9380
:103E60001F92CDB7DEB749830E94221F4981481BAC
:103E7000842F0F90DF91CF910895089581E00895E8
:103E800081E008950F931F93CF93DF931F92CDB7D7
:103E9000DEB7823049F48E010F5F1F4F21E040E012
:103EA00061E070E08AE215C0833049F48E010F5F53
:103EB0001F4F21E040E060E070E08AE10AC08430FA
:103EC00051F48E010F5F1F4F21E040E060E070E091
:103ED0008EE40E94060B89810F90DF91CF911F9194
:103EE0000F910895089582E00E94421F682F82E09A
:103EF0000E942D1E83E00E94421F682F83E00E94D3
:103F00002D1E84E00E94421F682F84E00C942D1E19
:103F10000E944C04FDCFAA1BBB1B51E107C0AA1F86
:103F2000BB1FA617B70710F0A61BB70B881F991F5A
:103F30005A95A9F780959095BC01CD010895EE0F93
:103F4000FF1F0590F491E02D0994CF93DF93823009
:103F5000910510F482E090E0E0918007F0918107F4
:103F600020E030E0A0E0B0E0309739F140815181AD
:103F700048175907B8F04817590771F4828193819F
:103F8000109729F013969C938E9312972CC09093C0
:103F900081078093800727C02115310531F0421732
:103FA000530718F0A901DB0101C0EF019A01BD011F
:103FB000DF010280F381E02DD7CF21153105F9F023
:103FC000281B390B2430310580F48A819B816115CF
:103FD000710521F0FB019383828304C090938107D4
:103FE00080938007FE01329644C0FE01E20FF31F6A
:103FF0008193919322503109398328833AC02091CB
:104000007E0730917F07232B41F4209102013091EC
:10401000030130937F0720937E07209100013091A8
:1040200001012115310541F42DB73EB7409104013E
:1040300050910501241B350BE0917E07F0917F071D
:10404000E217F307A0F42E1B3F0B2817390778F06F
:10405000AC014E5F5F4F2417350748F04E0F5F1FCE
:1040600050937F0740937E078193919302C0E0E0D5
:10407000F0E0CF01DF91CF910895CF93DF930097C8
:1040800009F487C0FC01329713821282C091800725
:10409000D0918107209781F420813181280F391F29
:1040A00080917E0790917F078217930779F5F093AF
:1040B0007F07E0937E076DC0DE0120E030E0AE17A1
:1040C000BF0750F412964D915C9113979D014115D5
:1040D000510509F1DA01F3CFB383A2834081518105
:1040E000840F951F8A179B0771F48D919C911197EE
:1040F000840F951F02969183808312968D919C91D7
:104100001397938382832115310529F4F093810756
:10411000E09380073EC0D9011396FC93EE9312976B
:104120004D915D91A40FB51FEA17FB0779F48081CB
:104130009181840F951F0296D90111969C938E93BD
:104140008281938113969C938E931297E0E0F0E026
:104150008A819B81009719F0FE01EC01F9CFCE0115
:10416000029628813981820F931F20917E0730911A
:104170007F072817390769F4309729F410928107CF
:104180001092800702C013821282D0937F07C093DF
:0C4190007E07DF91CF910895F894FFCFD7
:10419C00000082072000FF0300510137000000C11E
:1041AC000003C1F26F070000000700C00000000010
:1041BC0000000000000000000000000000000000F3
:1041CC00000000000000CC414D4320484F545F5389
:1041DC005741500000510100000001C1007FFC025A
:1041EC0001FF7FFF7F0000000400004D0240010032
:1041FC00DE079AB481FF00F5CEB481674D06060048
:10420C000000C3313256414D432D54656D706C61C5
:10421C0074650030303030303030303100414D4337
:10422C002D54656D7000436F7265465255004345C1
:08423C00524E204D4D430000DD
:00000001FF
